{
  "contractName": "Flashloan",
  "abi": [
    {
      "inputs": [
        {
          "internalType": "address",
          "name": "kyberAddress",
          "type": "address"
        },
        {
          "internalType": "address",
          "name": "uniswapAddress",
          "type": "address"
        },
        {
          "internalType": "address",
          "name": "wethAddress",
          "type": "address"
        },
        {
          "internalType": "address",
          "name": "daiAddress",
          "type": "address"
        },
        {
          "internalType": "address",
          "name": "beneficiaryAddress",
          "type": "address"
        }
      ],
      "payable": false,
      "stateMutability": "nonpayable",
      "type": "constructor"
    },
    {
      "anonymous": false,
      "inputs": [
        {
          "indexed": false,
          "internalType": "enum Flashloan.Direction",
          "name": "direction",
          "type": "uint8"
        },
        {
          "indexed": false,
          "internalType": "uint256",
          "name": "profit",
          "type": "uint256"
        },
        {
          "indexed": false,
          "internalType": "uint256",
          "name": "date",
          "type": "uint256"
        }
      ],
      "name": "NewArbitrage",
      "type": "event"
    },
    {
      "constant": false,
      "inputs": [
        {
          "internalType": "address",
          "name": "sender",
          "type": "address"
        },
        {
          "components": [
            {
              "internalType": "address",
              "name": "owner",
              "type": "address"
            },
            {
              "internalType": "uint256",
              "name": "number",
              "type": "uint256"
            }
          ],
          "internalType": "struct Account.Info",
          "name": "account",
          "type": "tuple"
        },
        {
          "internalType": "bytes",
          "name": "data",
          "type": "bytes"
        }
      ],
      "name": "callFunction",
      "outputs": [],
      "payable": false,
      "stateMutability": "nonpayable",
      "type": "function"
    },
    {
      "constant": false,
      "inputs": [
        {
          "internalType": "address",
          "name": "_solo",
          "type": "address"
        },
        {
          "internalType": "address",
          "name": "_token",
          "type": "address"
        },
        {
          "internalType": "uint256",
          "name": "_amount",
          "type": "uint256"
        },
        {
          "internalType": "enum Flashloan.Direction",
          "name": "_direction",
          "type": "uint8"
        }
      ],
      "name": "initiateFlashloan",
      "outputs": [],
      "payable": false,
      "stateMutability": "nonpayable",
      "type": "function"
    }
  ],
  "bytecode": "0x60806040523480156200001157600080fd5b506040516200283c3803806200283c83398181016040526200003791908101906200019d565b846000806101000a81548173ffffffffffffffffffffffffffffffffffffffff021916908373ffffffffffffffffffffffffffffffffffffffff16021790555083600160006101000a81548173ffffffffffffffffffffffffffffffffffffffff021916908373ffffffffffffffffffffffffffffffffffffffff16021790555082600260006101000a81548173ffffffffffffffffffffffffffffffffffffffff021916908373ffffffffffffffffffffffffffffffffffffffff16021790555081600360006101000a81548173ffffffffffffffffffffffffffffffffffffffff021916908373ffffffffffffffffffffffffffffffffffffffff16021790555080600460006101000a81548173ffffffffffffffffffffffffffffffffffffffff021916908373ffffffffffffffffffffffffffffffffffffffff16021790555050505050506200026d565b600081519050620001978162000253565b92915050565b600080600080600060a08688031215620001b657600080fd5b6000620001c68882890162000186565b9550506020620001d98882890162000186565b9450506040620001ec8882890162000186565b9350506060620001ff8882890162000186565b9250506080620002128882890162000186565b9150509295509295909350565b60006200022c8262000233565b9050919050565b600073ffffffffffffffffffffffffffffffffffffffff82169050919050565b6200025e816200021f565b81146200026a57600080fd5b50565b6125bf806200027d6000396000f3fe608060405234801561001057600080fd5b50600436106100365760003560e01c80638b4187131461003b578063c013147614610057575b600080fd5b6100556004803603610050919081019061196e565b610073565b005b610071600480360361006c919081019061190b565b610e61565b005b61007b611543565b8180602001905161008f9190810190611a3f565b90506000600360009054906101000a900473ffffffffffffffffffffffffffffffffffffffff1673ffffffffffffffffffffffffffffffffffffffff166370a08231306040518263ffffffff1660e01b81526004016100ee9190611f92565b60206040518083038186803b15801561010657600080fd5b505afa15801561011a573d6000803e3d6000fd5b505050506040513d601f19601f8201168201806040525061013e9190810190611a68565b90506000600181111561014d57fe5b8260000151600181111561015d57fe5b141561068457600360009054906101000a900473ffffffffffffffffffffffffffffffffffffffff1673ffffffffffffffffffffffffffffffffffffffff1663095ea7b36000809054906101000a900473ffffffffffffffffffffffffffffffffffffffff16836040518363ffffffff1660e01b81526004016101e1929190611fad565b602060405180830381600087803b1580156101fb57600080fd5b505af115801561020f573d6000803e3d6000fd5b505050506040513d601f19601f820116820180604052506102339190810190611a16565b5060008060009054906101000a900473ffffffffffffffffffffffffffffffffffffffff1673ffffffffffffffffffffffffffffffffffffffff1663809a9e55600360009054906101000a900473ffffffffffffffffffffffffffffffffffffffff1673eeeeeeeeeeeeeeeeeeeeeeeeeeeeeeeeeeeeeeee856040518463ffffffff1660e01b81526004016102ca9392919061200d565b604080518083038186803b1580156102e157600080fd5b505afa1580156102f5573d6000803e3d6000fd5b505050506040513d601f19601f820116820180604052506103199190810190611a91565b5090506000809054906101000a900473ffffffffffffffffffffffffffffffffffffffff1673ffffffffffffffffffffffffffffffffffffffff16633bba21dc600360009054906101000a900473ffffffffffffffffffffffffffffffffffffffff1684846040518463ffffffff1660e01b815260040161039c9392919061206d565b602060405180830381600087803b1580156103b657600080fd5b505af11580156103ca573d6000803e3d6000fd5b505050506040513d601f19601f820116820180604052506103ee9190810190611a68565b50606060026040519080825280602002602001820160405280156104215781602001602082028038833980820191505090505b509050600260009054906101000a900473ffffffffffffffffffffffffffffffffffffffff168160008151811061045457fe5b602002602001019073ffffffffffffffffffffffffffffffffffffffff16908173ffffffffffffffffffffffffffffffffffffffff1681525050600360009054906101000a900473ffffffffffffffffffffffffffffffffffffffff16816001815181106104be57fe5b602002602001019073ffffffffffffffffffffffffffffffffffffffff16908173ffffffffffffffffffffffffffffffffffffffff16815250506060600160009054906101000a900473ffffffffffffffffffffffffffffffffffffffff1673ffffffffffffffffffffffffffffffffffffffff1663d06ca61f47846040518363ffffffff1660e01b8152600401610557929190612171565b60006040518083038186803b15801561056f57600080fd5b505afa158015610583573d6000803e3d6000fd5b505050506040513d6000823e3d601f19601f820116820180604052506105ac91908101906119d5565b9050600160009054906101000a900473ffffffffffffffffffffffffffffffffffffffff1673ffffffffffffffffffffffffffffffffffffffff16637ff36ab547836001815181106105fa57fe5b60200260200101518530426040518663ffffffff1660e01b815260040161062494939291906121a1565b6000604051808303818588803b15801561063d57600080fd5b505af1158015610651573d6000803e3d6000fd5b50505050506040513d6000823e3d601f19601f8201168201806040525061067b91908101906119d5565b50505050610ba2565b600360009054906101000a900473ffffffffffffffffffffffffffffffffffffffff1673ffffffffffffffffffffffffffffffffffffffff1663095ea7b3600160009054906101000a900473ffffffffffffffffffffffffffffffffffffffff16836040518363ffffffff1660e01b8152600401610703929190611fad565b602060405180830381600087803b15801561071d57600080fd5b505af1158015610731573d6000803e3d6000fd5b505050506040513d601f19601f820116820180604052506107559190810190611a16565b50606060026040519080825280602002602001820160405280156107885781602001602082028038833980820191505090505b509050600360009054906101000a900473ffffffffffffffffffffffffffffffffffffffff16816000815181106107bb57fe5b602002602001019073ffffffffffffffffffffffffffffffffffffffff16908173ffffffffffffffffffffffffffffffffffffffff1681525050600260009054906101000a900473ffffffffffffffffffffffffffffffffffffffff168160018151811061082557fe5b602002602001019073ffffffffffffffffffffffffffffffffffffffff16908173ffffffffffffffffffffffffffffffffffffffff16815250506060600160009054906101000a900473ffffffffffffffffffffffffffffffffffffffff1673ffffffffffffffffffffffffffffffffffffffff1663d06ca61f84846040518363ffffffff1660e01b81526004016108be929190612171565b60006040518083038186803b1580156108d657600080fd5b505afa1580156108ea573d6000803e3d6000fd5b505050506040513d6000823e3d601f19601f8201168201806040525061091391908101906119d5565b9050600160009054906101000a900473ffffffffffffffffffffffffffffffffffffffff1673ffffffffffffffffffffffffffffffffffffffff166318cbafe5848360018151811061096157fe5b60200260200101518530426040518663ffffffff1660e01b815260040161098c9594939291906121ed565b600060405180830381600087803b1580156109a657600080fd5b505af11580156109ba573d6000803e3d6000fd5b505050506040513d6000823e3d601f19601f820116820180604052506109e391908101906119d5565b5060008060009054906101000a900473ffffffffffffffffffffffffffffffffffffffff1673ffffffffffffffffffffffffffffffffffffffff1663809a9e5573eeeeeeeeeeeeeeeeeeeeeeeeeeeeeeeeeeeeeeee600360009054906101000a900473ffffffffffffffffffffffffffffffffffffffff16476040518463ffffffff1660e01b8152600401610a7a9392919061200d565b604080518083038186803b158015610a9157600080fd5b505afa158015610aa5573d6000803e3d6000fd5b505050506040513d601f19601f82011682018060405250610ac99190810190611a91565b5090506000809054906101000a900473ffffffffffffffffffffffffffffffffffffffff1673ffffffffffffffffffffffffffffffffffffffff16637a2a045647600360009054906101000a900473ffffffffffffffffffffffffffffffffffffffff16846040518463ffffffff1660e01b8152600401610b4b929190612044565b6020604051808303818588803b158015610b6457600080fd5b505af1158015610b78573d6000803e3d6000fd5b50505050506040513d601f19601f82011682018060405250610b9d9190810190611a68565b505050505b8160200151600360009054906101000a900473ffffffffffffffffffffffffffffffffffffffff1673ffffffffffffffffffffffffffffffffffffffff166370a08231306040518263ffffffff1660e01b8152600401610c029190611f92565b60206040518083038186803b158015610c1a57600080fd5b505afa158015610c2e573d6000803e3d6000fd5b505050506040513d601f19601f82011682018060405250610c529190810190611a68565b1015610c93576040517f08c379a0000000000000000000000000000000000000000000000000000000008152600401610c8a906120fb565b60405180910390fd5b60008260200151600360009054906101000a900473ffffffffffffffffffffffffffffffffffffffff1673ffffffffffffffffffffffffffffffffffffffff166370a08231306040518263ffffffff1660e01b8152600401610cf59190611f92565b60206040518083038186803b158015610d0d57600080fd5b505afa158015610d21573d6000803e3d6000fd5b505050506040513d601f19601f82011682018060405250610d459190810190611a68565b039050600360009054906101000a900473ffffffffffffffffffffffffffffffffffffffff1673ffffffffffffffffffffffffffffffffffffffff1663a9059cbb600460009054906101000a900473ffffffffffffffffffffffffffffffffffffffff16836040518363ffffffff1660e01b8152600401610dc7929190611fad565b602060405180830381600087803b158015610de157600080fd5b505af1158015610df5573d6000803e3d6000fd5b505050506040513d601f19601f82011682018060405250610e199190810190611a16565b507fa89b78c8d1240154beaf4b865d2d7cb794ac0f358c618aef3de102cf4a4ee42d83600001518242604051610e51939291906120a4565b60405180910390a1505050505050565b60008490506000610e7286866110ca565b90506000610e7f8561127c565b90508573ffffffffffffffffffffffffffffffffffffffff1663095ea7b388836040518363ffffffff1660e01b8152600401610ebc929190611fad565b602060405180830381600087803b158015610ed657600080fd5b505af1158015610eea573d6000803e3d6000fd5b505050506040513d601f19601f82011682018060405250610f0e9190810190611a16565b5060606003604051908082528060200260200182016040528015610f4c57816020015b610f39611568565b815260200190600190039081610f315790505b509050610f598387611299565b81600081518110610f6657fe5b6020026020010181905250610fb86040518060400160405280876001811115610f8b57fe5b815260200184815250604051602001610fa4919061213b565b604051602081830303815290604052611352565b81600181518110610fc557fe5b6020026020010181905250610fda83836113fc565b81600281518110610fe757fe5b60200260200101819052506060600160405190808252806020026020018201604052801561102f57816020015b61101c6115d4565b8152602001906001900390816110145790505b50905061103a6114b5565b8160008151811061104757fe5b60200260200101819052508473ffffffffffffffffffffffffffffffffffffffff1663a67a6a4582846040518363ffffffff1660e01b815260040161108d929190611fd6565b600060405180830381600087803b1580156110a757600080fd5b505af11580156110bb573d6000803e3d6000fd5b50505050505050505050505050565b60008083905060008173ffffffffffffffffffffffffffffffffffffffff1663295c39a56040518163ffffffff1660e01b815260040160206040518083038186803b15801561111857600080fd5b505afa15801561112c573d6000803e3d6000fd5b505050506040513d601f19601f820116820180604052506111509190810190611a68565b9050600080600090505b8281101561123a578373ffffffffffffffffffffffffffffffffffffffff1663062bd3e9826040518263ffffffff1660e01b815260040161119b9190612156565b60206040518083038186803b1580156111b357600080fd5b505afa1580156111c7573d6000803e3d6000fd5b505050506040513d601f19601f820116820180604052506111eb91908101906118e2565b91508573ffffffffffffffffffffffffffffffffffffffff168273ffffffffffffffffffffffffffffffffffffffff16141561122d5780945050505050611276565b808060010191505061115a565b506040517f08c379a000000000000000000000000000000000000000000000000000000000815260040161126d9061211b565b60405180910390fd5b92915050565b60006112926002836114ee90919063ffffffff16565b9050919050565b6112a1611604565b604051806101000160405280600160088111156112ba57fe5b8152602001600081526020016040518060800160405280600015158152602001600060018111156112e757fe5b8152602001600060018111156112f957fe5b8152602001858152508152602001848152602001600081526020013073ffffffffffffffffffffffffffffffffffffffff1681526020016000815260200160405180602001604052806000815250815250905092915050565b61135a611604565b60405180610100016040528060088081111561137257fe5b81526020016000815260200160405180608001604052806000151581526020016000600181111561139f57fe5b8152602001600060018111156113b157fe5b81526020016000815250815260200160008152602001600081526020013073ffffffffffffffffffffffffffffffffffffffff16815260200160008152602001838152509050919050565b611404611604565b6040518061010001604052806000600881111561141d57fe5b81526020016000815260200160405180608001604052806001151581526020016000600181111561144a57fe5b81526020016000600181111561145c57fe5b8152602001858152508152602001848152602001600081526020013073ffffffffffffffffffffffffffffffffffffffff1681526020016000815260200160405180602001604052806000815250815250905092915050565b6114bd611670565b60405180604001604052803073ffffffffffffffffffffffffffffffffffffffff1681526020016001815250905090565b600080828401905083811015611539576040517f08c379a0000000000000000000000000000000000000000000000000000000008152600401611530906120db565b60405180910390fd5b8091505092915050565b60405180604001604052806000600181111561155b57fe5b8152602001600081525090565b6040518061010001604052806000600881111561158157fe5b8152602001600081526020016115956116a0565b81526020016000815260200160008152602001600073ffffffffffffffffffffffffffffffffffffffff16815260200160008152602001606081525090565b6040518060400160405280600073ffffffffffffffffffffffffffffffffffffffff168152602001600081525090565b6040518061010001604052806000600881111561161d57fe5b8152602001600081526020016116316116a0565b81526020016000815260200160008152602001600073ffffffffffffffffffffffffffffffffffffffff16815260200160008152602001606081525090565b6040518060400160405280600073ffffffffffffffffffffffffffffffffffffffff168152602001600081525090565b6040518060800160405280600015158152602001600060018111156116c157fe5b8152602001600060018111156116d357fe5b8152602001600081525090565b6000813590506116ef81612527565b92915050565b60008151905061170481612527565b92915050565b600082601f83011261171b57600080fd5b815161172e61172982612274565b612247565b9150818183526020840193506020810190508385602084028201111561175357600080fd5b60005b83811015611783578161176988826118cd565b845260208401935060208301925050600181019050611756565b5050505092915050565b60008151905061179c8161253e565b92915050565b600082601f8301126117b357600080fd5b81356117c66117c18261229c565b612247565b915080825260208301602083018583830111156117e257600080fd5b6117ed8382846124a0565b50505092915050565b60008135905061180581612555565b92915050565b60008151905061181a81612555565b92915050565b60006040828403121561183257600080fd5b61183c6040612247565b9050600061184c8482850161180b565b6000830152506020611860848285016118cd565b60208301525092915050565b60006040828403121561187e57600080fd5b6118886040612247565b90506000611898848285016116e0565b60008301525060206118ac848285016118b8565b60208301525092915050565b6000813590506118c781612565565b92915050565b6000815190506118dc81612565565b92915050565b6000602082840312156118f457600080fd5b6000611902848285016116f5565b91505092915050565b6000806000806080858703121561192157600080fd5b600061192f878288016116e0565b9450506020611940878288016116e0565b9350506040611951878288016118b8565b9250506060611962878288016117f6565b91505092959194509250565b60008060006080848603121561198357600080fd5b6000611991868287016116e0565b93505060206119a28682870161186c565b925050606084013567ffffffffffffffff8111156119bf57600080fd5b6119cb868287016117a2565b9150509250925092565b6000602082840312156119e757600080fd5b600082015167ffffffffffffffff811115611a0157600080fd5b611a0d8482850161170a565b91505092915050565b600060208284031215611a2857600080fd5b6000611a368482850161178d565b91505092915050565b600060408284031215611a5157600080fd5b6000611a5f84828501611820565b91505092915050565b600060208284031215611a7a57600080fd5b6000611a88848285016118cd565b91505092915050565b60008060408385031215611aa457600080fd5b6000611ab2858286016118cd565b9250506020611ac3858286016118cd565b9150509250929050565b6000611ad98383611b11565b60208301905092915050565b6000611af18383611e0e565b905092915050565b6000611b058383611f45565b60408301905092915050565b611b1a816123a0565b82525050565b611b29816123a0565b82525050565b6000611b3a826122f8565b611b44818561234b565b9350611b4f836122c8565b8060005b83811015611b80578151611b678882611acd565b9750611b7283612324565b925050600181019050611b53565b5085935050505092915050565b6000611b9882612303565b611ba2818561235c565b935083602082028501611bb4856122d8565b8060005b85811015611bf05784840389528151611bd18582611ae5565b9450611bdc83612331565b925060208a01995050600181019050611bb8565b50829750879550505050505092915050565b6000611c0d8261230e565b611c17818561236d565b9350611c22836122e8565b8060005b83811015611c53578151611c3a8882611af9565b9750611c458361233e565b925050600181019050611c26565b5085935050505092915050565b611c69816123b2565b82525050565b6000611c7a82612319565b611c84818561237e565b9350611c948185602086016124af565b611c9d816124e2565b840191505092915050565b611cb181612434565b82525050565b611cc081612458565b82525050565b611ccf8161246a565b82525050565b611cde8161247c565b82525050565b611ced8161248e565b82525050565b611cfc8161248e565b82525050565b6000611d0f601b8361238f565b91507f536166654d6174683a206164646974696f6e206f766572666c6f7700000000006000830152602082019050919050565b6000611d4f60248361238f565b91507f4e6f7420656e6f7567682066756e647320746f2072657061792064796478206c60008301527f6f616e21000000000000000000000000000000000000000000000000000000006020830152604082019050919050565b6000611db560248361238f565b91507f4e6f206d61726b6574496420666f756e6420666f722070726f7669646564207460008301527f6f6b656e000000000000000000000000000000000000000000000000000000006020830152604082019050919050565b600061016083016000830151611e276000860182611cb7565b506020830151611e3a6020860182611f74565b506040830151611e4d6040860182611ef0565b506060830151611e6060c0860182611f74565b506080830151611e7360e0860182611f74565b5060a0830151611e87610100860182611b11565b5060c0830151611e9b610120860182611f74565b5060e0830151848203610140860152611eb48282611c6f565b9150508091505092915050565b604082016000820151611ed76000850182611ce4565b506020820151611eea6020850182611f74565b50505050565b608082016000820151611f066000850182611c60565b506020820151611f196020850182611cc6565b506040820151611f2c6040850182611cd5565b506060820151611f3f6060850182611f74565b50505050565b604082016000820151611f5b6000850182611b11565b506020820151611f6e6020850182611f74565b50505050565b611f7d8161242a565b82525050565b611f8c8161242a565b82525050565b6000602082019050611fa76000830184611b20565b92915050565b6000604082019050611fc26000830185611b20565b611fcf6020830184611f83565b9392505050565b60006040820190508181036000830152611ff08185611c02565b905081810360208301526120048184611b8d565b90509392505050565b60006060820190506120226000830186611ca8565b61202f6020830185611ca8565b61203c6040830184611f83565b949350505050565b60006040820190506120596000830185611ca8565b6120666020830184611f83565b9392505050565b60006060820190506120826000830186611ca8565b61208f6020830185611f83565b61209c6040830184611f83565b949350505050565b60006060820190506120b96000830186611cf3565b6120c66020830185611f83565b6120d36040830184611f83565b949350505050565b600060208201905081810360008301526120f481611d02565b9050919050565b6000602082019050818103600083015261211481611d42565b9050919050565b6000602082019050818103600083015261213481611da8565b9050919050565b60006040820190506121506000830184611ec1565b92915050565b600060208201905061216b6000830184611f83565b92915050565b60006040820190506121866000830185611f83565b81810360208301526121988184611b2f565b90509392505050565b60006080820190506121b66000830187611f83565b81810360208301526121c88186611b2f565b90506121d76040830185611b20565b6121e46060830184611f83565b95945050505050565b600060a0820190506122026000830188611f83565b61220f6020830187611f83565b81810360408301526122218186611b2f565b90506122306060830185611b20565b61223d6080830184611f83565b9695505050505050565b6000604051905081810181811067ffffffffffffffff8211171561226a57600080fd5b8060405250919050565b600067ffffffffffffffff82111561228b57600080fd5b602082029050602081019050919050565b600067ffffffffffffffff8211156122b357600080fd5b601f19601f8301169050602081019050919050565b6000819050602082019050919050565b6000819050602082019050919050565b6000819050602082019050919050565b600081519050919050565b600081519050919050565b600081519050919050565b600081519050919050565b6000602082019050919050565b6000602082019050919050565b6000602082019050919050565b600082825260208201905092915050565b600082825260208201905092915050565b600082825260208201905092915050565b600082825260208201905092915050565b600082825260208201905092915050565b60006123ab8261240a565b9050919050565b60008115159050919050565b60008190506123cc826124f3565b919050565b60008190506123df82612500565b919050565b60008190506123f28261250d565b919050565b60008190506124058261251a565b919050565b600073ffffffffffffffffffffffffffffffffffffffff82169050919050565b6000819050919050565b600061243f82612446565b9050919050565b60006124518261240a565b9050919050565b6000612463826123be565b9050919050565b6000612475826123d1565b9050919050565b6000612487826123e4565b9050919050565b6000612499826123f7565b9050919050565b82818337600083830152505050565b60005b838110156124cd5780820151818401526020810190506124b2565b838111156124dc576000848401525b50505050565b6000601f19601f8301169050919050565b600981106124fd57fe5b50565b6002811061250a57fe5b50565b6002811061251757fe5b50565b6002811061252457fe5b50565b612530816123a0565b811461253b57600080fd5b50565b612547816123b2565b811461255257600080fd5b50565b6002811061256257600080fd5b50565b61256e8161242a565b811461257957600080fd5b5056fea365627a7a723158206e2be38396c6f014f33e441cdeb5b9b8ae48fabe44a3120b569a5790b50e856a6c6578706572696d656e74616cf564736f6c63430005100040",
  "source": "pragma solidity ^0.5.16;\npragma experimental ABIEncoderV2;\n\nimport \"@studydefi/money-legos/dydx/contracts/DydxFlashloanBase.sol\";\nimport \"@studydefi/money-legos/dydx/contracts/ICallee.sol\";\nimport { KyberNetworkProxy as IKyberNetworkProxy } from '@studydefi/money-legos/kyber/contracts/KyberNetworkProxy.sol';\n\nimport \"@openzeppelin/contracts/token/ERC20/IERC20.sol\";\nimport './IUniswapV2Router02.sol';\nimport './IWeth.sol';\n\ncontract Flashloan is ICallee, DydxFlashloanBase {\n    enum Direction { KyberToUniswap, UniswapToKyber } \n    struct ArbInfo {\n        Direction direction;\n        uint repayAmount;\n    }\n\n    event NewArbitrage (\n      Direction direction,\n      uint profit,\n      uint date\n    );\n\n    IKyberNetworkProxy kyber;\n    IUniswapV2Router02 uniswap;\n    IWeth weth;\n    IERC20 dai;\n    address beneficiary;\n    address constant KYBER_ETH_ADDRESS = 0xEeeeeEeeeEeEeeEeEeEeeEEEeeeeEeeeeeeeEEeE;\n\n    constructor(\n        address kyberAddress,\n        address uniswapAddress,\n        address wethAddress,\n        address daiAddress,\n        address beneficiaryAddress\n    ) public {\n      kyber = IKyberNetworkProxy(kyberAddress);\n      uniswap = IUniswapV2Router02(uniswapAddress);\n      weth = IWeth(wethAddress);\n      dai = IERC20(daiAddress);\n      beneficiary = beneficiaryAddress;\n    }\n\n    // This is the function that will be called postLoan\n    // i.e. Encode the logic to handle your flashloaned funds here\n    function callFunction(\n        address sender,\n        Account.Info memory account,\n        bytes memory data\n    ) public {\n        ArbInfo memory arbInfo = abi.decode(data, (ArbInfo));\n        uint256 balanceDai = dai.balanceOf(address(this));\n\n        if(arbInfo.direction == Direction.KyberToUniswap) {\n          //Buy ETH on Kyber\n          dai.approve(address(kyber), balanceDai); \n          (uint expectedRate, ) = kyber.getExpectedRate(\n            dai, \n            IERC20(KYBER_ETH_ADDRESS), \n            balanceDai\n          );\n          kyber.swapTokenToEther(dai, balanceDai, expectedRate);\n\n          //Sell ETH on Uniswap\n          address[] memory path = new address[](2);\n          path[0] = address(weth);\n          path[1] = address(dai);\n          uint[] memory minOuts = uniswap.getAmountsOut(address(this).balance, path); \n          uniswap.swapExactETHForTokens.value(address(this).balance)(\n            minOuts[1], \n            path, \n            address(this), \n            now\n          );\n        } else {\n          //Buy ETH on Uniswap\n          dai.approve(address(uniswap), balanceDai); \n          address[] memory path = new address[](2);\n          path[0] = address(dai);\n          path[1] = address(weth);\n          uint[] memory minOuts = uniswap.getAmountsOut(balanceDai, path); \n          uniswap.swapExactTokensForETH(\n            balanceDai, \n            minOuts[1], \n            path, \n            address(this), \n            now\n          );\n\n          //Sell ETH on Kyber\n          (uint expectedRate, ) = kyber.getExpectedRate(\n            IERC20(KYBER_ETH_ADDRESS), \n            dai, \n            address(this).balance\n          );\n          kyber.swapEtherToToken.value(address(this).balance)(\n            dai, \n            expectedRate\n          );\n        }\n\n        require(\n            dai.balanceOf(address(this)) >= arbInfo.repayAmount,\n            \"Not enough funds to repay dydx loan!\"\n        );\n\n        uint profit = dai.balanceOf(address(this)) - arbInfo.repayAmount; \n        dai.transfer(beneficiary, profit);\n        emit NewArbitrage(arbInfo.direction, profit, now);\n    }\n\n    function initiateFlashloan(\n      address _solo, \n      address _token, \n      uint256 _amount, \n      Direction _direction)\n        external\n    {\n        ISoloMargin solo = ISoloMargin(_solo);\n\n        // Get marketId from token address\n        uint256 marketId = _getMarketIdFromTokenAddress(_solo, _token);\n\n        // Calculate repay amount (_amount + (2 wei))\n        // Approve transfer from\n        uint256 repayAmount = _getRepaymentAmountInternal(_amount);\n        IERC20(_token).approve(_solo, repayAmount);\n\n        // 1. Withdraw $\n        // 2. Call callFunction(...)\n        // 3. Deposit back $\n        Actions.ActionArgs[] memory operations = new Actions.ActionArgs[](3);\n\n        operations[0] = _getWithdrawAction(marketId, _amount);\n        operations[1] = _getCallAction(\n            // Encode MyCustomData for callFunction\n            abi.encode(ArbInfo({direction: _direction, repayAmount: repayAmount}))\n        );\n        operations[2] = _getDepositAction(marketId, repayAmount);\n\n        Account.Info[] memory accountInfos = new Account.Info[](1);\n        accountInfos[0] = _getAccountInfo();\n\n        solo.operate(accountInfos, operations);\n    }\n}\n",
  "sourcePath": "/root/profitable-flashloans/contracts/Flashloan.sol",
  "compiler": {
    "name": "solc",
    "version": "0.5.16+commit.9c3226ce.Emscripten.clang"
  },
  "schemaVersion": "3.0.21",
  "updatedAt": "2020-12-22T04:31:45.950Z",
  "networkType": "ethereum",
  "devdoc": {
    "methods": {}
  },
  "userdoc": {
    "methods": {}
  }
}